{
  "_format": "hh-sol-artifact-1",
  "contractName": "Web3Tinkering",
  "sourceName": "contracts/Web3Tinkering.sol",
  "abi": [
    {
      "inputs": [
        {
          "internalType": "string",
          "name": "initMessage",
          "type": "string"
        }
      ],
      "stateMutability": "nonpayable",
      "type": "constructor"
    },
    {
      "anonymous": false,
      "inputs": [
        {
          "indexed": false,
          "internalType": "string",
          "name": "oldStr",
          "type": "string"
        },
        {
          "indexed": false,
          "internalType": "string",
          "name": "newStr",
          "type": "string"
        }
      ],
      "name": "UpdatedMessages",
      "type": "event"
    },
    {
      "inputs": [],
      "name": "firstName",
      "outputs": [
        {
          "internalType": "string",
          "name": "",
          "type": "string"
        }
      ],
      "stateMutability": "view",
      "type": "function"
    },
    {
      "inputs": [
        {
          "internalType": "string",
          "name": "_name",
          "type": "string"
        }
      ],
      "name": "getMessage",
      "outputs": [],
      "stateMutability": "pure",
      "type": "function"
    },
    {
      "inputs": [],
      "name": "getMyInfo",
      "outputs": [
        {
          "components": [
            {
              "internalType": "string[]",
              "name": "firstName",
              "type": "string[]"
            },
            {
              "internalType": "string[]",
              "name": "lastname",
              "type": "string[]"
            }
          ],
          "internalType": "struct Web3Tinkering.MyData[]",
          "name": "",
          "type": "tuple[]"
        }
      ],
      "stateMutability": "view",
      "type": "function"
    },
    {
      "inputs": [],
      "name": "lastName",
      "outputs": [
        {
          "internalType": "string",
          "name": "",
          "type": "string"
        }
      ],
      "stateMutability": "view",
      "type": "function"
    },
    {
      "inputs": [],
      "name": "message",
      "outputs": [
        {
          "internalType": "string",
          "name": "",
          "type": "string"
        }
      ],
      "stateMutability": "view",
      "type": "function"
    },
    {
      "inputs": [
        {
          "internalType": "string[]",
          "name": "_firstName",
          "type": "string[]"
        },
        {
          "internalType": "string[]",
          "name": "_lastName",
          "type": "string[]"
        }
      ],
      "name": "setMyInfo",
      "outputs": [],
      "stateMutability": "nonpayable",
      "type": "function"
    },
    {
      "inputs": [
        {
          "internalType": "string",
          "name": "newMessage",
          "type": "string"
        }
      ],
      "name": "update",
      "outputs": [],
      "stateMutability": "nonpayable",
      "type": "function"
    }
  ],
  "bytecode": "0x60806040526040518060400160405280600681526020017f4a61796c616e0000000000000000000000000000000000000000000000000000815250600190816200004a919062000358565b506040518060400160405280600781526020017f536e656c736f6e000000000000000000000000000000000000000000000000008152506002908162000091919062000358565b503480156200009f57600080fd5b50604051620016a8380380620016a88339818101604052810190620000c59190620005a3565b8060009081620000d6919062000358565b5050620005f4565b600081519050919050565b7f4e487b7100000000000000000000000000000000000000000000000000000000600052604160045260246000fd5b7f4e487b7100000000000000000000000000000000000000000000000000000000600052602260045260246000fd5b600060028204905060018216806200016057607f821691505b60208210810362000176576200017562000118565b5b50919050565b60008190508160005260206000209050919050565b60006020601f8301049050919050565b600082821b905092915050565b600060088302620001e07fffffffffffffffffffffffffffffffffffffffffffffffffffffffffffffffff82620001a1565b620001ec8683620001a1565b95508019841693508086168417925050509392505050565b6000819050919050565b6000819050919050565b600062000239620002336200022d8462000204565b6200020e565b62000204565b9050919050565b6000819050919050565b620002558362000218565b6200026d620002648262000240565b848454620001ae565b825550505050565b600090565b6200028462000275565b620002918184846200024a565b505050565b5b81811015620002b957620002ad6000826200027a565b60018101905062000297565b5050565b601f8211156200030857620002d2816200017c565b620002dd8462000191565b81016020851015620002ed578190505b62000305620002fc8562000191565b83018262000296565b50505b505050565b600082821c905092915050565b60006200032d600019846008026200030d565b1980831691505092915050565b60006200034883836200031a565b9150826002028217905092915050565b6200036382620000de565b67ffffffffffffffff8111156200037f576200037e620000e9565b5b6200038b825462000147565b62000398828285620002bd565b600060209050601f831160018114620003d05760008415620003bb578287015190505b620003c785826200033a565b86555062000437565b601f198416620003e0866200017c565b60005b828110156200040a57848901518255600182019150602085019450602081019050620003e3565b868310156200042a578489015162000426601f8916826200031a565b8355505b6001600288020188555050505b505050505050565b6000604051905090565b600080fd5b600080fd5b600080fd5b600080fd5b6000601f19601f8301169050919050565b62000479826200045d565b810181811067ffffffffffffffff821117156200049b576200049a620000e9565b5b80604052505050565b6000620004b06200043f565b9050620004be82826200046e565b919050565b600067ffffffffffffffff821115620004e157620004e0620000e9565b5b620004ec826200045d565b9050602081019050919050565b60005b8381101562000519578082015181840152602081019050620004fc565b60008484015250505050565b60006200053c6200053684620004c3565b620004a4565b9050828152602081018484840111156200055b576200055a62000458565b5b62000568848285620004f9565b509392505050565b600082601f83011262000588576200058762000453565b5b81516200059a84826020860162000525565b91505092915050565b600060208284031215620005bc57620005bb62000449565b5b600082015167ffffffffffffffff811115620005dd57620005dc6200044e565b5b620005eb8482850162000570565b91505092915050565b6110a480620006046000396000f3fe608060405234801561001057600080fd5b506004361061007d5760003560e01c80637daa10ce1161005b5780637daa10ce146100d85780639ab03dcb146100f6578063d297743414610114578063e21f37ce146101305761007d565b80630cc4e8d8146100825780633d7403a31461009e5780634589fe0c146100ba575b600080fd5b61009c600480360381019061009791906108d3565b61014e565b005b6100b860048036038101906100b391906108d3565b610189565b005b6100c2610264565b6040516100cf919061099b565b60405180910390f35b6100e06102f2565b6040516100ed9190610bcf565b60405180910390f35b6100fe610503565b60405161010b919061099b565b60405180910390f35b61012e60048036038101906101299190610cd7565b610591565b005b610138610611565b604051610145919061099b565b60405180910390f35b6040518060400160405280601181526020017f4d79204e616d65206973204a61796c616e000000000000000000000000000000815250905050565b600080805461019790610d7e565b80601f01602080910402602001604051908101604052809291908181526020018280546101c390610d7e565b80156102105780601f106101e557610100808354040283529160200191610210565b820191906000526020600020905b8154815290600101906020018083116101f357829003601f168201915b5050505050905081600090816102269190610f65565b507ff91d506d7335e83e4869a58cd98e0557cdcef6f507ba1e52725521305626d05b8183604051610258929190611037565b60405180910390a15050565b6001805461027190610d7e565b80601f016020809104026020016040519081016040528092919081815260200182805461029d90610d7e565b80156102ea5780601f106102bf576101008083540402835291602001916102ea565b820191906000526020600020905b8154815290600101906020018083116102cd57829003601f168201915b505050505081565b60606003805480602002602001604051908101604052809291908181526020016000905b828210156104fa578382906000526020600020906002020160405180604001604052908160008201805480602002602001604051908101604052809291908181526020016000905b8282101561040a57838290600052602060002001805461037d90610d7e565b80601f01602080910402602001604051908101604052809291908181526020018280546103a990610d7e565b80156103f65780601f106103cb576101008083540402835291602001916103f6565b820191906000526020600020905b8154815290600101906020018083116103d957829003601f168201915b50505050508152602001906001019061035e565b50505050815260200160018201805480602002602001604051908101604052809291908181526020016000905b828210156104e357838290600052602060002001805461045690610d7e565b80601f016020809104026020016040519081016040528092919081815260200182805461048290610d7e565b80156104cf5780601f106104a4576101008083540402835291602001916104cf565b820191906000526020600020905b8154815290600101906020018083116104b257829003601f168201915b505050505081526020019060010190610437565b505050508152505081526020019060010190610316565b50505050905090565b6002805461051090610d7e565b80601f016020809104026020016040519081016040528092919081815260200182805461053c90610d7e565b80156105895780601f1061055e57610100808354040283529160200191610589565b820191906000526020600020905b81548152906001019060200180831161056c57829003601f168201915b505050505081565b6003604051806040016040528084815260200183815250908060018154018082558091505060019003906000526020600020906002020160009091909190915060008201518160000190805190602001906105ed92919061069f565b50602082015181600101908051906020019061060a92919061069f565b5050505050565b6000805461061e90610d7e565b80601f016020809104026020016040519081016040528092919081815260200182805461064a90610d7e565b80156106975780601f1061066c57610100808354040283529160200191610697565b820191906000526020600020905b81548152906001019060200180831161067a57829003601f168201915b505050505081565b8280548282559060005260206000209081019282156106e7579160200282015b828111156106e65782518290816106d69190610f65565b50916020019190600101906106bf565b5b5090506106f491906106f8565b5090565b5b80821115610718576000818161070f919061071c565b506001016106f9565b5090565b50805461072890610d7e565b6000825580601f1061073a5750610759565b601f016020900490600052602060002090810190610758919061075c565b5b50565b5b8082111561077557600081600090555060010161075d565b5090565b6000604051905090565b600080fd5b600080fd5b600080fd5b600080fd5b6000601f19601f8301169050919050565b7f4e487b7100000000000000000000000000000000000000000000000000000000600052604160045260246000fd5b6107e082610797565b810181811067ffffffffffffffff821117156107ff576107fe6107a8565b5b80604052505050565b6000610812610779565b905061081e82826107d7565b919050565b600067ffffffffffffffff82111561083e5761083d6107a8565b5b61084782610797565b9050602081019050919050565b82818337600083830152505050565b600061087661087184610823565b610808565b90508281526020810184848401111561089257610891610792565b5b61089d848285610854565b509392505050565b600082601f8301126108ba576108b961078d565b5b81356108ca848260208601610863565b91505092915050565b6000602082840312156108e9576108e8610783565b5b600082013567ffffffffffffffff81111561090757610906610788565b5b610913848285016108a5565b91505092915050565b600081519050919050565b600082825260208201905092915050565b60005b8381101561095657808201518184015260208101905061093b565b60008484015250505050565b600061096d8261091c565b6109778185610927565b9350610987818560208601610938565b61099081610797565b840191505092915050565b600060208201905081810360008301526109b58184610962565b905092915050565b600081519050919050565b600082825260208201905092915050565b6000819050602082019050919050565b600081519050919050565b600082825260208201905092915050565b6000819050602082019050919050565b600082825260208201905092915050565b6000610a318261091c565b610a3b8185610a15565b9350610a4b818560208601610938565b610a5481610797565b840191505092915050565b6000610a6b8383610a26565b905092915050565b6000602082019050919050565b6000610a8b826109e9565b610a9581856109f4565b935083602082028501610aa785610a05565b8060005b85811015610ae35784840389528151610ac48582610a5f565b9450610acf83610a73565b925060208a01995050600181019050610aab565b50829750879550505050505092915050565b60006040830160008301518482036000860152610b128282610a80565b91505060208301518482036020860152610b2c8282610a80565b9150508091505092915050565b6000610b458383610af5565b905092915050565b6000602082019050919050565b6000610b65826109bd565b610b6f81856109c8565b935083602082028501610b81856109d9565b8060005b85811015610bbd5784840389528151610b9e8582610b39565b9450610ba983610b4d565b925060208a01995050600181019050610b85565b50829750879550505050505092915050565b60006020820190508181036000830152610be98184610b5a565b905092915050565b600067ffffffffffffffff821115610c0c57610c0b6107a8565b5b602082029050602081019050919050565b600080fd5b6000610c35610c3084610bf1565b610808565b90508083825260208201905060208402830185811115610c5857610c57610c1d565b5b835b81811015610c9f57803567ffffffffffffffff811115610c7d57610c7c61078d565b5b808601610c8a89826108a5565b85526020850194505050602081019050610c5a565b5050509392505050565b600082601f830112610cbe57610cbd61078d565b5b8135610cce848260208601610c22565b91505092915050565b60008060408385031215610cee57610ced610783565b5b600083013567ffffffffffffffff811115610d0c57610d0b610788565b5b610d1885828601610ca9565b925050602083013567ffffffffffffffff811115610d3957610d38610788565b5b610d4585828601610ca9565b9150509250929050565b7f4e487b7100000000000000000000000000000000000000000000000000000000600052602260045260246000fd5b60006002820490506001821680610d9657607f821691505b602082108103610da957610da8610d4f565b5b50919050565b60008190508160005260206000209050919050565b60006020601f8301049050919050565b600082821b905092915050565b600060088302610e117fffffffffffffffffffffffffffffffffffffffffffffffffffffffffffffffff82610dd4565b610e1b8683610dd4565b95508019841693508086168417925050509392505050565b6000819050919050565b6000819050919050565b6000610e62610e5d610e5884610e33565b610e3d565b610e33565b9050919050565b6000819050919050565b610e7c83610e47565b610e90610e8882610e69565b848454610de1565b825550505050565b600090565b610ea5610e98565b610eb0818484610e73565b505050565b5b81811015610ed457610ec9600082610e9d565b600181019050610eb6565b5050565b601f821115610f1957610eea81610daf565b610ef384610dc4565b81016020851015610f02578190505b610f16610f0e85610dc4565b830182610eb5565b50505b505050565b600082821c905092915050565b6000610f3c60001984600802610f1e565b1980831691505092915050565b6000610f558383610f2b565b9150826002028217905092915050565b610f6e8261091c565b67ffffffffffffffff811115610f8757610f866107a8565b5b610f918254610d7e565b610f9c828285610ed8565b600060209050601f831160018114610fcf5760008415610fbd578287015190505b610fc78582610f49565b86555061102f565b601f198416610fdd86610daf565b60005b8281101561100557848901518255600182019150602085019450602081019050610fe0565b86831015611022578489015161101e601f891682610f2b565b8355505b6001600288020188555050505b505050505050565b600060408201905081810360008301526110518185610962565b905081810360208301526110658184610962565b9050939250505056fea264697066735822122073ef835ea7c2bfc87c3dd98574fd77edc77dfc0c77019ca39f206a66fda94ca964736f6c63430008110033",
  "linkReferences": {},
  "deployedLinkReferences": {}
}